{
  "contractName": "DappToken",
  "abi": [
    {
      "inputs": [],
      "payable": false,
      "stateMutability": "nonpayable",
      "type": "constructor"
    },
    {
      "constant": true,
      "inputs": [],
      "name": "totalSupply",
      "outputs": [
        {
          "internalType": "uint256",
          "name": "",
          "type": "uint256"
        }
      ],
      "payable": false,
      "stateMutability": "view",
      "type": "function"
    }
  ],
  "bytecode": "0x6080604052348015600f57600080fd5b50620f42406000819055506084806100286000396000f3fe6080604052348015600f57600080fd5b506004361060285760003560e01c806318160ddd14602d575b600080fd5b60336049565b6040518082815260200191505060405180910390f35b6000548156fea265627a7a723158206720dac912d9d83e04d2a16da90c27ca6646142ae6799a109f5f2770d878dd7764736f6c63430005100032",
  "source": "pragma solidity ^0.5.16;\n\ncontract DappToken {\n    \n     uint256 public totalSupply;\n\n    // function DappToken() public {\n       // totalSupply = 1000000;\n    \n    constructor() public {\n     totalSupply = 1000000;\n}\n\n\n// function Inbox(string initialMessage) public {\n//     message = initialMessage;\n// }\n\n\n   \n}",
  "sourcePath": "/home/zeya/Desktop/2021code/ethe/contracts/DappToken.sol",
  "compiler": {
    "name": "solc",
    "version": "0.5.16+commit.9c3226ce.Emscripten.clang"
  },
  "schemaVersion": "3.4.3",
  "updatedAt": "2021-10-27T14:16:52.518Z",
  "networkType": "ethereum",
  "devdoc": {
    "methods": {}
  },
  "userdoc": {
    "methods": {}
  }
}